:020000040800F2
:1000000000500020FD1D0008ED0A0008EF0A00085E
:1000100000000000000000000000000000000000E0
:10002000000000000000000000000000F10A0008CD
:100030000000000000000000F30A0008F50A0008B4
:100040004D1E00084D1E00084D1E00084D1E0008E4
:100050004D1E00084D1E00084D1E00084D1E0008D4
:100060004D1E00084D1E00084D1E00084D1E0008C4
:100070004D1E00084D1E00084D1E00084D1E0008B4
:10008000990A00084D1E00084D1E000800000000DF
:100090004D1E00084D1E00084D1E00084D1E000894
:1000A0004D1E00084D1E00084D1E00084D1E000884
:1000B000D10900084D1E00084D1E00084D1E000805
:1000C00010B5064C2378002B07D1054B002B02D02E
:1000D000044800E000BF0123237010BD6800002029
:1000E00000000000F0280008044B10B5002B03D0DE
:1000F0000349044800E000BF10BDC04600000000F6
:100100006C000020F028000802780B78002A03D049
:10011000013001319A42F7D0D01A704703B47146CA
:10012000490840004900095E49008E4403BC7047FD
:10013000002243088B4274D303098B425FD3030A26
:100140008B4244D3030B8B4228D3030C8B420DD339
:10015000FF22090212BA030C8B4202D312120902C7
:1001600065D0030B8B4219D300E0090AC30B8B4205
:1001700001D3CB03C01A5241830B8B4201D38B03B3
:10018000C01A5241430B8B4201D34B03C01A524158
:10019000030B8B4201D30B03C01A5241C30A8B429B
:1001A00001D3CB02C01A5241830A8B4201D38B0286
:1001B000C01A5241430A8B4201D34B02C01A52412A
:1001C000030A8B4201D30B02C01A5241CDD2C3099C
:1001D0008B4201D3CB01C01A524183098B4201D318
:1001E0008B01C01A524143098B4201D34B01C01A03
:1001F000524103098B4201D30B01C01A5241C3087B
:100200008B4201D3CB00C01A524183088B4201D3E9
:100210008B00C01A524143088B4201D34B00C01AD5
:100220005241411A00D20146524110467047FFE741
:1002300001B5002000F006F802BDC0460029F7D045
:1002400076E770477047C046002B11D1002A0FD1C6
:10025000002900D1002802D00021C943081C07B49E
:10026000024802A14018029003BDC046D9FFFFFF1B
:1002700003B4684601B5029800F006F8019B9E465B
:1002800002B00CBC7047C046F0B557464E464546D6
:10029000DE46E0B504000D009246994683B08B42DD
:1002A00030D82DD04946504600F0D8F82900060035
:1002B000200000F0D3F8331A9846203B9B4633D4F5
:1002C0005A465346934042461F00534693401E00F1
:1002D000AF423AD8AF4200D178E05B46A41BBD41A3
:1002E000002B00DA75E00022002300920193012325
:1002F0005A4693400193012342469340009328E0DD
:100300008242CFD900220023009201930C9B002B44
:1003100001D01C605D600098019903B03CBC904620
:100320009946A246AB46F0BD424620239B1A524650
:10033000DA40414613004A468A40170042461F43AE
:10034000534693401E00AF42C4D9002200230092BE
:1003500001934346002BD9D0FB0772081A43464647
:100360007B080EE0AB4201D1A2420CD8A41A9D41F9
:10037000012024196D410021013E24184D41002E19
:1003800006D0AB42EED9013E24196D41002EF8D1C2
:10039000009801995B4600196941002B24DB2B0072
:1003A0005A464446D3402A00E2401C005B461500F2
:1003B000002B2ADB26009E40330026004746BE4025
:1003C0003200801A9941009001919FE7A342BCD866
:1003D00083E74246202300219B1A002200910192CC
:1003E0000122DA40019286E7424620239B1A2A0026
:1003F00046469A402300F340444613432A00E24015
:100400001C005B461500002BD4DA42462F00202347
:10041000260097409B1ADE403B003343CDE7C046A1
:100420001C2101231B04984201D3000C10391B0A24
:10043000984201D3000A08391B09984201D30009E8
:10044000043902A2105C40187047C046040302023F
:1004500001010101000000000000000010B50029AA
:1004600003D1FFF7DDFF203002E0081CFFF7D8FFC3
:1004700010BDC04610B594B03822002106A801F086
:1004800014FD1422002101A801F00FFD13490B688F
:10049000134A1A4080231B0113430B601023069359
:1004A0000F3B0D9300240E94A0231B020F93109476
:1004B00006A800F085FF0F2301930294039404948F
:1004C0000594002101A801F043FA8021002249048B
:1004D000002000F0C5FE14B010BDC0460070004002
:1004E000FFE7FFFF10B50E4800F0A6F80D4800F03A
:1004F000A3F800F085FEFFF7BDFF00F017F800F04D
:100500002FFA00F09FFAA0202021C00501F0EEFB99
:10051000FA20400000F096FE014800F0A5F8F2E74E
:10052000940000201801002070470000F0B5C64676
:1005300000B588B0374BDA6A01273A43DA62DA6AE3
:100540003A400092009ADA6A02252A43DA62DA6AAD
:100550002A400192019AD96A04221143D962DB6AC6
:1005600013400293029B0C230393049500240594EB
:10057000093B06930792A023DB05984603A91800C0
:1005800001F0E0FA244E01220821300001F0A8FB1E
:1005900000222021300001F0A3FB8021002249002D
:1005A000300001F09DFB94235B00039304970594B6
:1005B000069403A9300001F0C5FA102303930495B3
:1005C00005940694079503A9300001F0BBFA802337
:1005D0009B010393049505940694079503A93000A5
:1005E00001F0B0FA2023039304970594069403A91D
:1005F000404601F0A7FA8023DB010393049405949D
:10060000069403A9054801F09DFA08B004BC904681
:10061000F0BDC04600100240000400500008005029
:10062000014B18600068704790000020014B186073
:100630000160704790000020002380228354013223
:10064000835470478022835CDBB2C154835C7F2B70
:1006500005D08022835C0133DBB2835470470133C1
:100660000022C254FAE70000F0B5C7B0040000232E
:1006700026937C22002127A801F017FC8025A64B99
:100680006A460821521853518022002102A801F025
:100690000CFC635D013BE35C0A2B01D047B0F0BD6D
:1006A0007633E35C023BE35C0D2BF7D17333E25C02
:1006B000D2B20133E35CDBB29A42EFD98022A55C6F
:1006C0008123E15C6D1AEDB2A91EC9B2E65CA619E0
:1006D000E35CDBB2A354002900D08BE032008F49E9
:1006E00026A801F0EBFBFA23AAB29B0026A98C48AE
:1006F00000F082FC80236A4608241219D0588949E8
:10070000FFF702FD002818D184236A461219D05839
:10071000002871D01022002101F0CAFCFFF780FFF1
:100720000200814926A801F0C9FB0F25FA23AAB2CD
:100730009B0026A97A4800F05FFC80236A460824C3
:100740001219D0587949FFF7DFFC002870D18423B3
:100750006A461219D058002859D004336A46250039
:100760001219D358002B52D01022002101F0A0FC06
:10077000040088236A465219D0581022002101F043
:1007800097FC01002000FFF751FF2000FFF748FF12
:1007900003002200664926A801F090FB133540E0D3
:1007A000F05C02AAD0540133DBB28B42F8D3614C27
:1007B000210002A801F0A2FB80236A460827D21973
:1007C000D0502100002001F099FB84236A46D21901
:1007D000D0502100002001F091FB88236A46D219F5
:1007E000D0502100002001F089FB8C236A46D219E9
:1007F000D05073E70023D8E726A94F4B0A0013CB4C
:1008000013C203CB03C21B78137014258EE726A9ED
:100810004A4B0A0013CB13C213CB13C21B8813809D
:100820001925FA23AAB29B0026A93D4800F0E4FB53
:1008300080236A4608241219D0584149FFF764FC06
:1008400000283BD184236A461219D358002B1AD0B2
:1008500088236A461219D358002B14D0394B1868D4
:10086000426AC36B016CC0681B041B0C1204120C9F
:100870000004000C01900904090C0091324926A8DB
:1008800001F01CFB232584236A4608215218D05806
:100890002E49FFF739FC002823D084236A4608211B
:1008A0005218D0582A49FFF72FFC002826D0FA23E7
:1008B000AAB29B0026A91A4800F09EFB254B1A8875
:1008C0006946982009180A809B786A469A2152182E
:1008D0001370FA239B00022226A9114800F08CFB1A
:1008E000DCE600F0A7F826AA1B4B13CB13C21100BD
:1008F0001A880A809B788B700E25CEE700F0C4F82A
:1009000026AA164B13CB13C211001A680A601B7972
:100910000B711025CBE7C046C82900080C29000838
:100920009C01002010290008182900083C29000813
:10093000442900080829000824290008582900082B
:10094000742900081C0200207C2900089C2900084A
:10095000B0290008CC290008A0290008B8290008FF
:1009600010B5184A916B80239B020B439363164882
:10097000164B0360E1235B02436000238360C36086
:1009800003610C2242618361C3610362436200F030
:10099000E9FB002812D10C4B1A680121494211626F
:1009A0002E3111601B6818229A6100222B391C20FD
:1009B00001F0A0F91C2001F0CDF910BDFFF7B4FD46
:1009C000E9E7C046001002409C01002000440040BE
:1009D00000B583B0094B1B68DA690192019A92064F
:1009E00005D4064B1B680022DA6103B000BD596ACA
:1009F000C9B20348FFF726FEF3E7C0469C0100207A
:100A000094000020084B196800220A601B689A6253
:100A10000649D9621A61064A9A61D13AFF3A1A62C6
:100A20002D3ADA607047C0461C020020FFFF00002C
:100A300001020000024B1B6801221A607047C04689
:100A40001C02002010B50C4A936B02210B439363E8
:100A50000A4B0B4A136000229A620A4ADA620022A9
:100A60000139102001F046F9102001F073F9FFF769
:100A7000C9FFFFF7DFFF10BD001002400004004077
:100A80001C020020FFFF0000024B1B6800221A60BE
:100A90007047C0461C02002030B583B0114B1B6864
:100AA0001A690192019A920710D5596B89B29C6B11
:100AB000A4B2A14210D2641AA4B2210A0A4D28009D
:100AC000FFF7C0FDE1B22800FFF7BCFD054B1B6836
:100AD00000221A6103B030BD641AA4B2013CA4B272
:100AE000EBE7C0461C020020180100207047FEE71B
:100AF0007047704710B500F097FB10BD054B5A6B5F
:100B000001210A435A63996B802252050A439A6372
:100B10007047C0460010024070470000F8B504005E
:100B2000016883680269134342691343C26913432E
:100B30000A68B848024013430B6022685368B649FC
:100B40000B40E1680B435360A1692268B34B9A42A2
:100B500001D0236A19439368B14803400B43936063
:100B60002368B04A93420DD0AF4A93422AD0AF4A8D
:100B7000934260D0AE4A93425FD0A84A934232D0AB
:100B800010250BE0AB4AD16C03220A40022A42D066
:100B900014D8002A41D0012A41D104259F4A93420A
:100BA00055D080231B02E2699A4200D18CE0082DC7
:100BB00000D96CE1AB00A04AD3589F46032A30D13C
:100BC0000825EBE79B4AD16C0C220A40082A2AD060
:100BD00005D8002A29D0042A29D10425DEE70C2AC9
:100BE00027D10825DAE7934AD26CC02109010A40CF
:100BF000802109018A4222D007D8002A21D08021F1
:100C0000C9008A421FD10425C8E7C02109018A42D0
:100C10001BD10825C2E70225C0E70125BEE7102544
:100C2000BCE71025BAE70225B8E70025B6E710258E
:100C3000B4E71025B2E70025B0E70025AEE70225AE
:100C4000ACE70025AAE71025A8E71025A6E7042DA4
:100C500035D00BD8002D2CD0022D05D1754B1B683B
:100C6000DB062FD4754805E00125A6E0082D1ED12E
:100C700080200002626853009B18834200D909E17A
:100C80001303834200D207E1070E06025008002139
:100C9000801979410023FFF7D7FA694BC218694BD5
:100CA0009A4200D9FAE02368D860002585E0012542
:100CB00083E000F027FF0028DCD100257DE000F074
:100CC00027FBF8E76048D5E7082D61D8AB005F4AFD
:100CD000D3589F4600F016FF400063685B08C018B9
:100CE0006168FFF725FA0004000C594A0300103B25
:100CF000934200D9D4E00F2302009A434008083BF6
:100D0000184010432368D86057E000F00BFF400004
:100D100063685B08C0186168FFF70AFA0004000CFA
:100D20000025E2E7434B1B68DB060BD563685808D8
:100D3000484B9C4660446168FFF7FAF90004000CD8
:100D40000025D2E763685808434B9C4660446168BD
:100D5000FFF7EEF90004000C0025C6E700F0D8FA12
:100D6000400063685B08C0186168FFF7E1F90004A0
:100D7000000C0025B9E76368580880235B029C4695
:100D800060446168FFF7D4F90004000C0025ACE76B
:100D900001250020A9E700F0B5FE63685B08C018D4
:100DA0006168FFF7C5F90004000C294A0300103BF5
:100DB000934200D976E02368D860002323666366F7
:100DC0002800F8BD00F0AEFE63685B08C0186168DB
:100DD000FFF7AEF90004000C0025E6E7154B1B6891
:100DE000DB060BD563685808174B9C466044616866
:100DF000FFF79EF90004000C0025D6E76368580849
:100E00000E4B9C4660446168FFF792F90004000CA9
:100E10000025CAE7F369FFEFFFCFFFFF004800405E
:100E2000FFF4FFFF0038014000440040004C004048
:100E30000050004000100240D02900080024F400B7
:100E400000FDFFFFFFFC0F0000093D00F429000832
:100E5000EFFF000000127A000048E80100F058FAA5
:100E600063685B08C0186168FFF762F90004000C52
:100E700000259AE76368580880231B029C4660445B
:100E80006168FFF755F90004000C00258DE7012586
:100E900000208AE7012590E701258EE701258CE7F0
:100EA00001258AE7012588E7436ADB0706D5026842
:100EB00053682C490B40816A0B435360436A9B077C
:100EC00006D50268536828490B40C16A0B4353603A
:100ED000436A5B0706D50268536824490B40016BDF
:100EE0000B435360436A1B0706D5026853682049C9
:100EF0000B40416B0B435360436ADB0606D5026827
:100F000093681C490B40816B0B439360436A9B06BB
:100F100006D50268936818490B40C16B0B43936078
:100F2000436A5B060BD50268536814490B40016C99
:100F30000B43536080235B03026C9A420AD0436ADE
:100F40001B0606D5026853680D490B40816C0B43A4
:100F500053607047026853680A490B40416C0B4369
:100F60005360ECE7FFFFFDFFFFFFFEFFFFFFFBFF0E
:100F7000FF7FFFFFFFEFFFFFFFDFFFFFFFFFEFFF41
:100F8000FFFFF7FFFFFF9FFFF8B5CE46474680B54E
:100F900006000D0017009946089B98463368DC69E7
:100FA0002C40641B63425C41BC421ED1434601336A
:100FB000F4D000F041F94B46C01A404502D84346F0
:100FC000002BEBD1326813680A490B40136032687A
:100FD0009368A331FF318B43936020237367B3671A
:100FE00050330022F254032000E000200CBC904655
:100FF0009946F8BD5FFEFFFFF0B5C64600B582B06A
:1010000004000D0090461E00436F202B65D100297F
:1010100068D0002A68D080235B0182689A421AD087
:101020007023E35C012B61D070230122E254002382
:10103000E3672133636700F0FFF80700502342465F
:10104000E2520233E25280235B01A2689A4209D045
:10105000002398461AE00369002BE1D1CB07DFD5C6
:1010600001203BE02369002B25D0002398460DE0AA
:1010700043461B882268DB05DB0D936202239C46F6
:10108000E0445223E25A013A92B2E2525223E35A26
:101090009BB2002B12D000963B0000228021200042
:1010A000FFF772FF002823D1002DE1D02A782368B2
:1010B0009A620135E5E7A8460025E7E700963B0080
:1010C000002240212000FFF75FFF002812D12023DB
:1010D000636750330022E25400E0022002B004BCF7
:1010E0009046F0BD0120F9E70120F7E70220F5E77F
:1010F0000320F3E70320F1E730B583B004000023B9
:10110000C36700F099F8050023681B681B070CD41F
:1011100023681B685B0715D420236367A3675033DC
:101120000022E254002003B030BD80210C4B00931C
:101130000300002289032000FFF726FF0028E7D0E4
:101140000320F0E78021064B00932B000022C90307
:101150002000FFF719FF0028DED00320E3E7C04698
:10116000FFFFFF0110B5041E2ED0436F002B21D0CE
:10117000242363672268136801218B4313602000D6
:10118000FFF7CCFC012814D0636A002B18D1226829
:1011900053680E490B405360226893682A218B43A1
:1011A00093602268136829390B4313602000FFF70E
:1011B000A3FF10BD70330022C254FFF7ADFCD7E788
:1011C0002000FFF771FEE2E70120F2E7FFB7FFFF23
:1011D00010B50400094B1868FA218900FEF7A8FF32
:1011E00000F0C2FD002801D0012010BD0130002216
:1011F0002100404200F07EFD0020F6E700000020C4
:1012000010B5084A136840210B4313600020FFF714
:10121000DFFF041E02D00124200010BDFFF76EFC8A
:10122000FAE7C04600200240024A13680133136007
:101230007047C04658020020014B18687047C046EE
:101240005802002070B50400FFF7F6FF0500631C8C
:1012500000D00134FFF7F0FF401BA042FAD370BD6D
:1012600070B588B005000C0016001422002103A8F8
:1012700000F01BFE022304930693002D1DD0022DC7
:101280002ED080239B000393002307931D4AD16A2D
:1012900001331943D162D26A13400293029BA0200A
:1012A00003A9C00500F04EFC164BDA6816490A4047
:1012B00034432243DA6008B070BDFE330393002349
:1012C0000793104AD16A01331943D162D26A13409D
:1012D0000093009BA02003A9C00500F033FCE3E7C6
:1012E00080239B01039302230793064AD16A194383
:1012F000D162D26A13400193019B03A9034800F015
:1013000021FCD1E700100240FFFFFF8000040050E5
:1013100010B5264BD9680C230B40082B42D00C2B60
:1013200011D0042B09D0214B5A68520B07231340CC
:10133000013380200002984010BD1C4B1B68DB0667
:1013400032D51B48F8E78A0C0F231340194AD25CA8
:10135000890D032319400131144BDB68DB0309D5E8
:101360005001801A8301181AC00080184002FEF74D
:10137000DFFEE1E70D4B1B68DB0609D553019B1A25
:101380009801C01AC00080180002FEF7D1FED3E712
:1013900053019B1A9801C01AC00080188002FEF702
:1013A000C7FEC9E70448C7E70448C5E70010024084
:1013B00000093D00302A000800127A000024F400E1
:1013C000F0B583B0041E00D19BE2C44BDA680C2553
:1013D0001540DE6880235B021E400368DB0736D5BC
:1013E000082D2CD00C2D28D0636880225202934205
:1013F00055D0A022D202934258D0B84B1A68B849AF
:101400000A401A601A68802149020A400192019A32
:101410001A68B4490A401A606368002B52D0FFF77B
:101420000BFF0700AD4B1B689B0310D4FFF704FFB5
:10143000C01B6428F6D9032064E2002ED4D0A74B49
:101440001B689B0303D56368002B00D15CE2236813
:101450009B076CD5E3689A0605D5A0480268202151
:101460000A4302608B43042D3CD00C2D38D0002B56
:1014700000D1AEE099490A680920824313430B600A
:10148000FFF7DAFE0600954B1B685B0700D597E077
:10149000FFF7D2FE801B0228F5D9032032E28F4AE3
:1014A000116880235B020B431360B5E78B4B19680F
:1014B0008022D2020A431A601968802252020A432B
:1014C0001A60A9E7FFF7B8FE0700844B1B689B036F
:1014D000BDD5FFF7B1FEC01B6428F6D9032011E289
:1014E000002EC4D17D4A1268520702D5002B00D1CC
:1014F0000CE27A4E72687C490A40216909020A436B
:101500007260326809218A4313433360FFF700FF9A
:10151000F26812090F231340744AD35CD840744B0D
:1015200018600020FFF754FE002800D0EAE123688D
:10153000DB062CD5002D5FD1684B1B689B0503D5BE
:10154000E369002B00D1E3E1644A536869490B4029
:10155000616A0B43536053681B021B0A216A090628
:101560000B435360636A590B013180231B028B408C
:10157000D16809090F220A405C498A5CD3405C4A61
:1015800013600020FFF724FE002800D0BAE1236892
:101590001B077DD56369002B67D0504A136D01216D
:1015A0000B431365FFF748FE06004C4B1B6D9B0772
:1015B0006ED4FFF741FE801B0228F6D90320A1E17B
:1015C00046494B68484A13402269120213434B6054
:1015D000ADE7424A136801218B431360FFF72CFEED
:1015E00006003E4B1B685B07A1D5FFF725FE801B5D
:1015F0000228F6D9032085E1E369002B22D0374A7F
:10160000116880235B000B431360FFF715FE060093
:10161000324B1B689B0506D4FFF70EFE801B022889
:10162000F6D903206EE12D4A536832490B40616AB6
:101630000B43536053681B021B0A216A09060B43C4
:101640005360A4E7254A13682B490B401360FFF74A
:10165000F3FD0600214B1B689B0598D5FFF7ECFDB9
:10166000801B0228F6D903204CE11C4A136D01218E
:101670008B431365FFF7E0FD0600184B1B6D9B07BE
:1016800006D5FFF7D9FD801B0228F6D9032039E1E2
:1016900023685B0700D48CE0104B9B6BDB001BD4F2
:1016A0000E4A916B80235B050B4393630126134B1A
:1016B0001B68DB0526D5A36880225200934235D0F3
:1016C000002B4BD1054B1A6D0B490A401A651A6D58
:1016D0000B490A401A652FE00026E8E70010024097
:1016E000FFFFFEFFFFFFFBFFFFE0FFFF182A0008E0
:1016F00000000020FF1FFFFFFFFEFFFF0070004003
:10170000FFFBFFFF884A116880235B000B431360D7
:10171000FFF792FD0700844B1B68DB05CBD4FFF776
:101720008BFDC01B6428F6D90320EBE07F4A116DC6
:1017300080235B000B431365A368002B28D0FFF7C1
:101740007BFD0700794B1B6D9B0530D4FFF774FDC3
:10175000C01B774B9842F5D90320D3E0A022D200DA
:10176000934209D0714B1A6D72490A401A651A6D7D
:1017700071490A401A65DFE76C4B196D013AFF3A6F
:101780000A431A65196D802252000A431A65D3E78D
:10179000FFF752FD0700654B1B6D9B0507D5FFF753
:1017A0004BFDC01B624B9842F5D90320AAE0012EE5
:1017B00021D023689B063CD5A369002B21D05B4B2D
:1017C00099680120014399605A6B02435A635B4A4E
:1017D000116A80239B010B431362FFF72DFD060066
:1017E000524B9B689B0724D4FFF726FD801B0228E1
:1017F000F6D9032086E04D4A936B51490B40936321
:10180000D7E74A4A936801218B4393604B4A136A96
:101810004C490B401362FFF70FFD0600434B9B68DA
:101820009B0706D5FFF708FD801B0228F6D9032089
:1018300068E0A36A002B00D16CE00C2D49D0022B8C
:1018400012D03A4A136840490B401360FFF7F4FC8A
:101850000400364B1B689B0139D5FFF7EDFC001BDC
:101860000228F6D903204DE0304A136836490B4070
:101870001360FFF7E1FC05002C4B1B689B0106D5AC
:10188000FFF7DAFC401B0228F6D903203AE027498B
:10189000CB682E4A1340E26A206B0243606B02431E
:1018A0001343CB600A6880235B0413430B60FFF78C
:1018B000C3FC04001D4B1B689B0106D4FFF7BCFC56
:1018C000001B0228F6D903201CE000201AE00020AB
:1018D00018E0012B20D0154BDA6880235B021340FF
:1018E000E16A8B421AD1F0239B031340216B8B4298
:1018F00016D1C0231B041A40636B9A4212D10020F8
:1019000000E0012003B0F0BD0120FBE70120F9E772
:101910000120F7E70020F5E70120F3E70120F1E7D8
:101920000120EFE70120EDE70070004000100240C9
:1019300088130000FFFEFFFFFFFBFFFF00000140D8
:10194000FFFFFFEFFFDFFFFFFFFFFFFEFFFF02FFD5
:1019500070B504000D00002800D1B7E05F4B1A6895
:10196000012313408B420AD25C490B680122934346
:101970002B430B600B681A40AA4200D0A8E02368F2
:101980009B0706D5564AD368F0218B43A1680B43C9
:10199000D3602368DB0764D56368022B09D0032B6F
:1019A00029D0012B2DD04E4A1268920506D4012071
:1019B0008BE04B4A1268920300D48BE04849CA6816
:1019C000032082431343CB60FFF736FC06006368B5
:1019D000022B1CD0032B28D0012B34D0404BDB68CA
:1019E0000C221A423DD0FFF727FC801B3D4B98424A
:1019F000F4D9032069E03A4A12689201DED401204A
:101A000063E0374A12685207D8D401205DE0344BB6
:101A1000DA680C231340082B23D0FFF70DFC801B42
:101A2000304A9042F3D903204FE02D4BDA680C2363
:101A300013400C2B15D0FFF7FFFB801B294B98425E
:101A4000F3D9032041E0264BDA680C231340042B22
:101A500007D0FFF7F1FB801B224B9842F3D90320FC
:101A600033E01E4B1A6801231340AB4209D91B49CE
:101A70000B68012293432B430B600B681A40AA4268
:101A80002AD123685B0706D5154AD36816490B404F
:101A9000E1680B43D36023681B0707D51049CB6867
:101AA000124A13402269D2001343CB60FFF730FC87
:101AB0000B4BDA6812090F2313400D4AD35CD84050
:101AC0000C4B18600020FFF783FB70BD0120FCE782
:101AD0000120FAE70120F8E70120F6E700200240A4
:101AE0000010024088130000FFF8FFFFFFC7FFFF50
:101AF000182A000800000020014B18687047C046F3
:101B00000000002010B5FFF7F7FF044BDA68120A57
:101B100007231340024AD35CD84010BD0010024096
:101B2000282A000810B5FFF7E7FF044BDA68D20A4D
:101B300007231340024AD35CD84010BD0010024076
:101B4000282A0008F0B5C64600B5002338E005266F
:101B500000E00026A64034003C4302329200584E7A
:101B60009451584A14684246D24326004546AE4333
:101B70004D68ED0302D545462C432600514C2660A6
:101B80006468260016404D68AD0302D545462C43D7
:101B900026004C4C6660A468260016404D68ED0295
:101BA00002D545462C432600464CA660E4682240F8
:101BB0004D68AD0201D542462243424CE2600133FA
:101BC0000C682200DA4078D001229A4025001540A6
:101BD000A8461442F3D04C68022C01D0122C0ED12E
:101BE000DC080834A400275807261E40B6000F253D
:101BF000B540AF430D69B5402E003E4326504C68BA
:101C0000661E012E03D9112C01D0122C12D184682A
:101C10005F000326BE40B4432600CC68BC4034437A
:101C20008460446894434A681609012232409A400D
:101C30002243426004685E0003221700B740BC43A1
:101C40004D682A40B24022430260C468BC438A689F
:101C5000B2402243C2604A68D200B0D51A4C626BCF
:101C60000126324362639A08941CA400144EA759BB
:101C700003261E40B4000F26A640B743A026F60553
:101C8000B04200D165E7114EB0420ED0104EB042C6
:101C90000DD0104EB0420CD00F4EB0420BD00F4EB4
:101CA000B04200D153E7062654E7012652E7022648
:101CB00050E703264EE704264CE704BC9046F0BDEF
:101CC00000000140000401400010024000040050E8
:101CD00000080050000C005000100050001C005084
:101CE000002A01D0816170478162FCE74369594055
:101CF0004161704770B5002811DB8308134DC03374
:101D00009B005C5903221040C000FC321600864044
:101D1000B44389010A40824022435A5170BD0F23C7
:101D20000340083B9B0806339B00094A94466344E2
:101D30005D6803242040C000FF2214008440A543B6
:101D400089010A4082402A435A60E7E700E100E047
:101D500000ED00E01F2318401E3B8340014A136042
:101D60007047C04600E100E0013880235B049842E0
:101D70000FD2094A50600948036A1B021B0AC0219E
:101D800009060B43036200239360073313600020AE
:101D900070470120FCE7C04610E000E000ED00E0E5
:101DA000104B1968802252000A431A60DA680E4903
:101DB0000A40DA601A680D490A401A609A680121DF
:101DC0008A439A601A680A490A401A60DA6809491F
:101DD0000A40DA6000221A61074B802212059A60DD
:101DE0007047C046001002400C40FF88F6FFF6FE28
:101DF000FFFFFBFFFFFF02FF00ED00E00D488546FF
:101E0000002103E00C4B5B58435004310B480C4B52
:101E100042189A42F6D30B4A02E0002313600432C0
:101E2000094B9A42F9D3FFF7BBFF00F011F8FEF718
:101E300059FBFEE700500020E02B000800000020C6
:101E400068000020680000206C020020FEE700000F
:101E500070B500260C4D0D4C641BA410A64209D190
:101E6000002600F045FD0A4D0A4C641BA410A64252
:101E700005D170BDB300EB5898470136EEE7B300CB
:101E8000EB5898470136F2E7D82B0008D82B00080A
:101E9000D82B0008DC2B0008002310B59A4200D193
:101EA00010BDCC5CC4540133F8E7030082189342A0
:101EB00000D1704719700133F9E700000EB400B586
:101EC0000B499CB01DAB0290069007910491094804
:101ED000094904CB0591006802A9019300F00AFAB0
:101EE0000023029A13701CB008BC03B01847C04608
:101EF000FFFFFF7F040000200802FFFFF8B5124B30
:101F000005001F680E00BC6D002C16D1502000F09B
:101F1000DDF8B865046044608460C46004614461B5
:101F200084618462C462046344638463C46304643C
:101F300044648464C4640477446231002800BA6D48
:101F4000012300F003F8F8BD04000020F0B50028DC
:101F500002D11068002813D0040020000E0005787C
:101F600001343778002F04D1002D0FD128001560DF
:101F700006E00136BD42F4D1002BEED114600370AF
:101F8000F0BD2F000FE00133002E04D123000134F7
:101F90001D7827000B001E78B542F4D1002DF0D03B
:101FA0000023013C23701760EAE70000F0B51E0033
:101FB0003D4B87B00590029208009C460822019193
:101FC000030061461C78451C095D28000F0017407E
:101FD0001142F5D12D2C33D101272C789D1C002ED8
:101FE0005DD0102E09D1302C07D120222B789343BD
:101FF000582B4FD110266C7802352C4B3100FB1832
:1020000018000393FEF71AF90023012284461800F2
:102010000491524221003039092916D80C00A642F9
:102020001FDD591C09D01300844506D302D1049941
:10203000A14202DB0123704320182C780135E9E727
:102040002B2CCCD12C789D1CC9E7210041391929B2
:1020500001D8373CE3E721006139192901D8573C01
:10206000DDE75A1C08D1059A23331360029B0398BD
:10207000002B09D107B0F0BD002F00D04042029ADA
:10208000002AF7D0002B01D06B1E0193029B019A0E
:102090001A60EFE73024002EAFD10836ADE7302CC0
:1020A000A3D00A26A9E7C0463A2A0008FFFFFF7F0F
:1020B00010B513000A00010002480068FFF776FF20
:1020C00010BDC046040000207047704710B5034B98
:1020D0000100186800F04EF810BDC0460400002052
:1020E00070B50500002910D00C1F2368002B00DA02
:1020F000E418280000F0B0FB1D4A1368002B05D13E
:1021000063601460280000F0AFFB70BDA34208D9E3
:10211000216860188342F3D118685B684118216018
:10212000EEE71A005B68002B01D0A342F9D91168D1
:102130005018A0420BD12068091850181160834232
:10214000E0D118685B68411811605360DAE7A0427B
:1021500002D90C232B60D5E721686018834203D194
:1021600018685B684118216063605460CAE7C04624
:1021700084000020F8B50323CD1C9D4308350600DC
:102180000C2D1FD20C25A9421ED8300000F064FB94
:1021900025490A681400002C1AD1244F3B68002BF3
:1021A00004D12100300000F027FB38602900300006
:1021B00000F022FB431C2BD10C233000336000F0D5
:1021C00053FB03E0002DDEDA0C2333600020F8BD62
:1021D00023685B1B19D40B2B03D92360E4182560FB
:1021E00003E06368A2420ED10B60300000F03CFBBC
:1021F000200007220B30231D9043C21A9842E6D0DC
:102200001B1AA350E3E75360EFE722006468C2E7BC
:102210000323C41C9C43A042E1D0211A300000F0EB
:10222000EBFA431CDBD1C7E78400002088000020C4
:10223000F0B58E6885B007000C00039201939E42B2
:102240003CD890238A89DB001A4234D003250969DF
:1022500023685B1A0293636902985D43EB0F5D1973
:10226000019B6D1001331B18AB4200D91D005305B3
:1022700032D529003800FFF77DFF061E09D10C2357
:102280003B6040230120A28940421343A38105B053
:10229000F0BD029A2169FFF7FFFDA389144A1A4095
:1022A00080231343A381029B2661F6182660656193
:1022B000019EED1AA560019B9E4200D9019E32004D
:1022C0000399206800F0B5FAA36800209B1BA36067
:1022D00023689E192660DAE72A00380000F0CCFA5D
:1022E000061EE0D138002169FFF7FAFEC7E7C046B5
:1022F0007FFBFFFFF0B5A1B003901D008B890F009D
:1023000016001B0611D50B69002B0ED14021FFF7DB
:1023100031FF38603861002805D10C23039A013859
:10232000136021B0F0BD40237B61002308AC6361E2
:10233000203363761033A376079535002B78002B76
:1023400001D0252B47D1AB1B0593B5420CD03200F1
:1023500039000398FFF76CFF431C00D1AEE06269BF
:10236000059B9446634463612B78002B00D1A5E064
:10237000012200235242626004A9543252186E1C9A
:102380002360E360A3601370A3650522317854488D
:1023900000F044FA751C00281FD12268D30604D52A
:1023A000532304A95B1820211970130704D5532364
:1023B00004A95B182B21197033782A2B16D035000D
:1023C00000210A20E3682A786E1C303A092A4ED987
:1023D000002911D117E00135B0E7414B2268C01A3E
:1023E0000123834013432E002360CEE7079B191D72
:1023F0001B680791002B01DB0B9304E05B42E36059
:102400000223134323602B782E2B0AD16B782A2BBF
:1024100035D1079B02351A1D1B680792002B2BDB59
:102420000993304E03223000297800F0F7F9002894
:1024300006D04023801B834022680135134323606C
:102440002978062228486E1C217600F0E7F900283A
:102450003CD0264B002B25D10722079B0733934303
:10246000083307936369049A9B18636165E74343E4
:10247000350001219B18A6E701235B42D0E700232A
:102480000A201A000135636029786E1C3039092949
:1024900003D9002BC5D00992C3E74243350001237D
:1024A0005218F1E707AB00933A002100104B039854
:1024B00000E000BF0490049B0133D3D1BB890D9889
:1024C0005B0600D42DE7012040422AE707AB0093CA
:1024D0003A002100064B039800F07CF8EAE7C0467A
:1024E0009C2B0008A22B0008A62B0008000000006F
:1024F00031220008F7B5150001938A680B690C00BA
:102500000090934200DA130022002B6043321278CD
:10251000002A01D001332B6023689B0602D52B686B
:1025200002332B602268062317001F401A4227D06F
:10253000230043331B785A1E93412268920630D4FD
:10254000220001990098089E4332B047431C25D0D1
:10255000062320682A68E16800250340042B03D184
:102560008D1AEB43DB171D40A3682269934201DDFE
:102570009B1AED180027BD4220D1002010E0013742
:10258000E3682A689B1ABB42D2DD2200012301992D
:102590000098089E1932B047431CF0D101204042F8
:1025A000FEBD3020E1184331087021005A1C45312E
:1025B0000978A218433202331170C1E722000123C7
:1025C00001990098089E1A32B047431CE6D00137A3
:1025D000D1E70000F0B58BB006920A0043320793B2
:1025E000059004920A7E0C00109B782A06D8622A75
:1025F00008D8002A00D1C0E0582A52D0260042361E
:10260000327022E0100063381528F7D8FDF786FDF8
:1026100016001F00F6FFF6FFF6FFF6FF1F00F6FF9D
:10262000F6FFF6FFF6FFA80036009A00F6FFF6FF69
:10263000B900F6FF3600F6FFF6FF9E0026001A6886
:102640004236111D1960136833700123A7E0086832
:1026500019680A1D05060BD50D681A60002D03DAEE
:102660002D23049A6D421370614B0A27039332E0C5
:102670000D681A604106F1D52DB2EFE70D681968B3
:10268000081D18602E0601D50D6803E06D06FBD508
:102690000D68ADB2564B0A2703936F2A17D108274E
:1026A00015E045310A70524A03921A68216820CA1F
:1026B0001A60080650D5CB0702D5202319432160A4
:1026C0001027002D03D1202322689A432260230083
:1026D000002243331A706368A360002B03DB0422DB
:1026E000216891432160002D02D1049E002B0CD063
:1026F000049E28003900FDF7A1FD039B013E5B5CB1
:1027000033702B0005009F42F3D9082F09D12368AD
:10271000DB0706D563682269934202DC3023013E61
:102720003370049B9B1B2361079B2100009305983A
:10273000069B09AAFFF7DEFE431C35D1012040426B
:102740000BB0F0BD202209680A43226022007821E4
:1027500045321170274AA7E74806ACD5ADB2AAE7C3
:102760001A680D68101D4969186013682E0601D596
:10277000196002E06D06FBD519800023049E2361D9
:10278000D2E71A68111D19601668002130006268CE
:1027900000F044F8002801D0801B6060636823616A
:1027A0000023049A1370BFE7236932000699059845
:1027B000079DA847431CC1D023689B0715D4099BDC
:1027C000E0689842BCDA1800BAE7220001230699B3
:1027D0000598079E1932B047431CAFD00135E36816
:1027E000099A9B1AAB42F0DCE9E70025F7E7C046FF
:1027F000AD2B0008BE2B0008002370B5064D040069
:1028000008002B6000F066F8431C03D12B68002BF6
:1028100000D0236070BDC04668020020C9B2821893
:10282000904201D10020704703788B42FBD00130E9
:10283000F6E710B5884202D98B18984203D30023DB
:1028400007E08B5C8354013AFBD210BDCC5CC454CE
:1028500001339A42FAD1F8E710B50248FFF734FC89
:1028600010BDC0466002002010B50248FFF72DFCE5
:1028700010BDC04660020020F8B507000D0016002C
:10288000002905D11100FFF775FC04002000F8BDF8
:10289000002A03D1FFF724FC3400F7E700F012F818
:1028A0002C00B042F2D231003800FFF763FC041E66
:1028B000ECD029003200FFF7EFFA29003800FFF7CB
:1028C0000FFCE3E70B1F1B68181F002B01DA0B58E6
:1028D000C0187047044A03001068002802D0C318CB
:1028E000136070470148FAE78C0000207002002056
:1028F000F8B5C046F8BC08BC9E467047F8B5C0465F
:08290000F8BC08BC9E467047BC
:10290800200000005D2573006D7233320000000066
:102918003C4F4B3A2530233130780A003C457272DF
:102928006F723A6D72333220616464726573730A30
:10293800000000006D773332000000003C4F4B3A36
:102948002530233130782C202530233130780A0087
:102958003C4572726F723A6D7733322061646472EB
:1029680065737320646174610A00000074696D65A1
:10297800720000003C4F4B3A25302336782C202536
:10298800302336782C2025302336782C2025302308
:1029980036780A00676F00003C4F4B3A2054696D47
:1029A800657220676F0A000073746F700000000082
:1029B8003C4F4B3A2054696D65722073746F700AEE
:1029C800000000005D0A0000960D0008C40D000814
:1029D800DC0D00088E0E00085C0E00088E0E000844
:1029E8008E0E00088E0E0008740E0008D40C000825
:1029F8000A0D0008240D0008900D00085C0D000861
:102A0800900D0008900D0008900D0008760D000844
:102A18000000000000000000010203040607080986
:102A28000000000001020304030406080C1018202B
:102A38003000202020202020202020282828282876
:102A4800202020202020202020202020202020207E
:102A580020208810101010101010101010101010D6
:102A680010100404040404040404040410101010D6
:102A78001010104141414141410101010101010191
:102A88000101010101010101010101010110101001
:102A98001010104242424242420202020202020264
:102AA80002020202020202020202020202101010D4
:102AB80010200000000000000000000000000000DE
:102AC80000000000000000000000000000000000FE
:102AD80000000000000000000000000000000000EE
:102AE80000000000000000000000000000000000DE
:102AF80000000000000000000000000000000000CE
:102B080000000000000000000000000000000000BD
:102B180000000000000000000000000000000000AD
:102B2800000000000000000000000000000000009D
:102B3800000000000000000000000000000000008D
:102B4800000000000000000000000000000000007D
:102B5800000000000000000000000000000000006D
:102B6800000000000000000000000000000000005D
:102B7800000000000000000000000000000000004D
:102B8800000000000000000000000000000000003D
:102B980000000000232D302B2000686C4C00656677
:102BA8006745464700303132333435363738394196
:102BB80042434445460030313233343536373839AC
:082BC8006162636465660000B0
:082BD000B8D6FF7F01000000F0
:042BD800E900000808
:042BDC00C10000082C
:102BE0000000200008000020000000005C2B00080E
:102BF0007C2B00083C2B00080000000000000000B7
:102C000000000000000000000000000000000000C4
:102C100000000000000000000000000000000000B4
:102C200000000000000000000000000000000000A4
:102C30000000000000000000000000000000000094
:082C400000000000000000008C
:0400000508001DFDD5
:00000001FF
